:100000000C942A000C9447000C9447000C94470071
:100010000C9447000C9447000C9447000C94610129
:100020000C9447000C9447000C9447000C94470034
:100030000C9447000C9447000C9447000C94470024
:100040000C9447000C9447000C9447000C94470014
:100050000C94470011241FBECFE5D8E0DEBFCDBF12
:1000600013E0A0E6B0E0EEE9FEE002C005900D92DC
:10007000AE37B107D9F723E0AEE7B3E001C01D9278
:10008000A83AB207E1F70E94C4030C944D070C9400
:10009000000089B3881F8827881F8093920320E07F
:1000A00030E019C0B9016F5F7F4F46B381E090E047
:1000B000FC0102C0EE0FFF1F2A95E2F7842F90E0AB
:1000C0008E239F2321E0892B09F420E0FB01EE56CB
:1000D000FC4F20839B012430310524F386B385FB3C
:1000E000882780F98093970308959C018EB58860D6
:1000F0008EBD8EB583608EBD032E000C440B550B58
:1001000067E478EE81E090E00E941B043BBD2ABDCD
:1001100089B7806189BF7894089589B3817080938D
:100120007F030895CF93DF93CDB7DEB7C055D109D4
:100130000FB6F894DEBF0FBECDBF0E94490080E12C
:10014000E1E2F1E0DE01119601900D928A95E1F76E
:100150008EE0E1EFF0E0DE01519601900D928A957C
:10016000E1F718A21F8E8CE0E1E0F1E0DE0191964C
:1001700001900D928A95E1F7FE01BD9684E0DF01C2
:100180001D928A95E9F780E1E1E3F1E0DE01D19685
:1001900001900D928A95E1F789E0E1E1F1E0DE015D
:1001A000AF5BBF4F01900D928A95E1F7FE01E65BD0
:1001B000FF4F87E0DF011D928A95E9F780E090E02C
:1001C00020E007C0FC01EE56FC4F308131112F5F5B
:1001D000019686309105B4F380E090E007C0FC0101
:1001E000EE56FC4F308131112F5F0196863091051C
:1001F000B4F38091F000882309F447C0213081F5E1
:1002000020918003E22FF0E0EE56FC4F808188239E
:1002100019F010927E034BC081E080937E0380E052
:100220001CC0E82FF0E0EE56FC4F90819923A1F01E
:10023000821750F4263041F0BE016F5B7F4F82E899
:1002400093E00E945C0433C0BE016F5C7F4F82E884
:1002500093E00E945C042BC08F5F863010F327C0B0
:10026000211108C0BE016F5F7F4F82E893E00E94BA
:100270005C0407C0BE016F5E7F4F82E893E00E947E
:100280005C0481E080937E0312C0222359F0BE01FA
:100290006F5D7F4F82E893E00E945C0481E0809371
:1002A0007E0305C010927E0381E08093F000C05B66
:1002B000DF4F0FB6F894DEBF0FBECDBFDF91CF91F9
:1002C00008951F920F920FB60F9211242F933F9310
:1002D0004F935F936F937F938F939F93AF93BF934E
:1002E000EF93FF930E948D000E9492008091810302
:1002F00090E001968F709078992324F40197806F95
:100300009F6F01968093810382E090E00E947500C8
:10031000FF91EF91BF91AF919F918F917F916F91DD
:100320005F914F913F912F910F900FBE0F901F90B3
:1003300018959BB3282F269528779778922B9BBBEF
:100340009BB39D7F9BBB9BB394609BBB2AE62A9586
:10035000F1F700C09BB39B7F9BBB9AE69A95F1F7A0
:1003600000C02BB390E0880F991F880F991F880F4A
:10037000991F922F97788877892B8BBB8BB38460DA
:100380008BBB2AE62A95F1F700C08BB38B7F8BBB22
:100390008FEF99EF20E0815090402040E1F700C0BE
:1003A000000008958230A1F028F4882349F08130BC
:1003B00059F01EC08430A1F078F08530A9F018C043
:1003C00088B3806488BB089588B3806888BB08952B
:1003D00082B3816082BB089582B3826082BB08953C
:1003E00082B3806482BB089582B3806882BB089523
:1003F00082B38C7382BB88B38F7388BB81E085BB6B
:10040000109280030895AC0160E033C02BB3969541
:1004100098772778922B9BBB8BB382608BBB8BB377
:1004200084608BBB80E58A95F1F78BB38B7F8BBBA8
:1004300090E59A95F1F78BB39081292F30E0220F48
:10044000331F220F331F220F331F87782877282B63
:100450002BBB8BB384608BBB80E58A95F1F79BB394
:100460009B7F9BBB8FE59AEE0197F1F700C00000E0
:100470006F5FFA01E60FF11D90819111C7CF0895CA
:100480002FEF89EF90E0215080409040E1F700C0CD
:10049000000082E00E94990188E20E9499018CE0AC
:1004A0000E94990186E00E94990181E00E949901D1
:1004B0002FEF89EF90E0215080409040E1F700C09D
:1004C00000000895CF93DF93EC010CC081E491E02C
:1004D0000E9403028FE59AEE0197F1F700C0000039
:1004E0000E94400280917F038111F0CF0CC082E80E
:1004F00093E00E9403028FE59AEE0197F1F700C0A6
:1005000000000E94400280917E038111F0CFCE0155
:100510000E940302DF91CF910895EF92FF920F9313
:100520001F93CF93DF93809181030AC0CE01019680
:100530008F709078992324F40197806F9F6F0196B4
:10054000C82FD0E0FE01E856FC4F80818111EECF2C
:1005500081E0FE01E856FC4F80830E9440028E013C
:10056000000F111F000F111FC80180559F4F7C0104
:10057000FC01808191810E9462028FE19EE40197DB
:10058000F1F700C0000080EC0E949901F701828120
:1005900093810E9462028FE19EE40197F1F700C00F
:1005A00000000E94400200591F4FF8018081918194
:1005B0000E9462028FE19EE40197F1F700C0000003
:1005C00080EC0E949901F801828193810E9462026D
:1005D0008FE19EE40197F1F700C0000022E02EC0F9
:1005E00080B3422F50E090E0022E02C0959587958F
:1005F0000A94E2F780FF21C085B3806285BB9FEF3C
:10060000E0E7F2E09150E040F040E1F700C0000088
:1006100085B38F7D85BB8FE39CE90197F1F700C01F
:10062000000042505109C05ADF4F288130E081E07C
:100630004217530761F080E00AC02F5F263080F236
:10064000EFE1FEE43197F1F700C0000086CFDF91C3
:10065000CF911F910F91FF90EF900895DF92EF924D
:10066000FF920F931F93CF93DF931F92CDB7DEB707
:1006700080E1E8E9F3E0DF011D928A95E9F786E081
:100680000E94D201D12C6AC090E001969F938F9373
:100690000F2EFEE4EF2EF1E0FF2EF02DFF92EF92F1
:1006A0008E010F5F1F4F1F930F930E9463040E94E0
:1006B000400281E591E00E946202C8010E9462024C
:1006C0008FE19EE40197F1F700C0000083E090E025
:1006D0008D1991099F938F93FF92EF921F930F9320
:1006E0000E94630480EC0E94990187E591E00E94DA
:1006F0006202C8010E946202AFE1BEE41197F1F705
:1007000000C00000809180030E948D020FB6F89413
:10071000DEBF0FBECDBF882389F08091800391E0BA
:10072000980F909380030E94D20185B3909180032B
:100730009F5F887F892B85BBD12C10C0D3940E94EA
:10074000400284E691E00E9462023FEF89EF90E070
:10075000315080409040E1F700C00000A2E0AD15AC
:1007600028F080918003863009F08ECF81E0B2E0DE
:10077000BD1508F480E00F90DF91CF911F910F918C
:10078000FF90EF90DF9008958EE78ABB80EC87BBE7
:1007900083EC81BB87E284BB18BA15BA12BA1BBAC4
:1007A0002FEF89EF90E0215080409040E1F700C0AA
:1007B000000080E006C0E82FF0E0EE56FC4F10820B
:1007C0008F5F8630C0F30E9449000E94400284E19E
:1007D00090E00E9475002FEF80E792E0215080406A
:1007E0009040E1F700C000008091F000882301F103
:1007F0000E942E038823E1F00E9440028AE691E0E5
:100800000E9462028FE59AEE0197F1F700C00000A6
:1008100080EC0E9499018BE791E00E9462029FEFB9
:1008200021EE84E0915020408040E1F700C00000BC
:100830001092F000D9CF052E97FB1EF400940E9471
:10084000320457FD07D00E943A0407FC03D04EF44F
:100850000C94320450954095309521953F4F4F4F61
:100860005F4F089590958095709561957F4F8F4F5C
:100870009F4F0895A1E21A2EAA1BBB1BFD010DC0BC
:10088000AA1FBB1FEE1FFF1FA217B307E407F50740
:1008900020F0A21BB30BE40BF50B661F771F881F1C
:1008A000991F1A9469F760957095809590959B01B2
:1008B000AC01BD01CF010895FB01DC0101900D9257
:1008C0000020E1F70895AEE0B0E0E9E6F4E00C9432
:1008D00024070D891E8986E08C831A8309838FEF94
:1008E0009FE79E838D83AE01475E5F4F6F89788D52
:1008F000CE0101960E948504EF81F885E00FF11F7B
:1009000010822E96E4E00C944007ABE0B0E0EBE8F8
:10091000F4E00C9416076C017B018A01FC0117823C
:100920001682838181FFCCC1CE0101963C01F60184
:100930009381F70193FD859193FF81917F01882336
:1009400009F4BAC1853239F493FD859193FF819101
:100950007F01853229F4B60190E00E947C06E7CF42
:10096000912C212C312CFFE1F315D8F08B3279F04A
:1009700038F4803279F08332A1F4232D20611DC038
:100980008D3261F0803369F4232D216016C0832DF0
:100990008260382EE32DE4603E2E2AC0F32DF860ED
:1009A0001DC037FC2DC020ED280F2A3040F08E32BC
:1009B000B9F436FC81C1232D2064322E19C036FED5
:1009C00006C08AE0989E200D1124922E11C0EAE004
:1009D0002E9E200D1124222EF32DF0623F2E08C0F2
:1009E0008C3621F4832D8068382E02C0883641F47D
:1009F000F70193FD859193FF81917F018111B3CF21
:100A0000982F9F7D9554933028F40C5F1F4F9FE3E0
:100A100099830DC0833631F0833771F0833509F047
:100A200059C021C0F801808189830E5F1F4F88243F
:100A30008394912C530113C02801F2E04F0E511CF6
:100A4000F801A080B18036FE03C0692D70E002C0BD
:100A50006FEF7FEFC5010E9471064C018201F32DFB
:100A6000FF773F2E16C0280122E0420E511CF801EC
:100A7000A080B18036FE03C0692D70E002C06FEF28
:100A80007FEFC5010E9466064C01F32DF0683F2EF2
:100A9000820133FC1BC0822D90E088169906B0F4C9
:100AA000B60180E290E00E947C062A94F4CFF50122
:100AB00037FC859137FE81915F01B60190E00E947D
:100AC0007C0621102A9421E0821A91088114910455
:100AD00071F7E8C0843611F0893641F5F80137FE28
:100AE00007C060817181828193810C5F1F4F08C0B4
:100AF00060817181072E000C880B990B0E5F1F4FD0
:100B0000F32DFF763F2E97FF09C090958095709545
:100B100061957F4F8F4F9F4FF0683F2E2AE030E066
:100B2000A3010E94B806882E861845C0853731F487
:100B3000232D2F7EB22E2AE030E025C0932D997F01
:100B4000B92E8F36C1F018F4883579F0B5C08037EA
:100B500019F0883721F0B0C0E92FE061BE2EB4FE55
:100B60000DC0FB2DF460BF2E09C034FE0AC0292F32
:100B70002660B22E06C028E030E005C020E130E05B
:100B800002C020E132E0F801B7FE07C06081718148
:100B9000828193810C5F1F4F06C06081718180E06C
:100BA00090E00E5F1F4FA3010E94B806882E8618A2
:100BB000FB2DFF773F2E36FE0DC0232D2E7FA22E5C
:100BC000891458F434FE0BC032FC09C0832D8E7E8C
:100BD000A82E05C0B82CA32C03C0B82C01C0B92C7A
:100BE000A4FE0FC0FE01E80DF11D8081803321F4C9
:100BF0009A2D997EA92E09C0A2FE06C0B394B39483
:100C000004C08A2D867809F0B394A3FC11C0A0FE1D
:100C100006C0B21488F4280C922C9B180EC0B21493
:100C200060F4B60180E290E00E947C06B394F7CFB6
:100C3000B21418F42B1802C0982C212CA4FE10C05A
:100C4000B60180E390E00E947C06A2FE17C0A1FCE2
:100C500003C088E790E002C088E590E0B6010CC0D0
:100C60008A2D867859F0A1FE02C08BE201C080E295
:100C7000A7FC8DE2B60190E00E947C06891438F44E
:100C8000B60180E390E00E947C069A94F7CF8A94A4
:100C9000F301E80DF11D8081B60190E00E947C0611
:100CA0008110F5CF222009F442CEB60180E290E017
:100CB0000E947C062A94F6CFF6018681978102C0B5
:100CC0008FEF9FEF2B96E2E10C943207FC01059029
:100CD000615070400110D8F7809590958E0F9F1F3E
:100CE0000895FC016150704001900110D8F7809583
:100CF00090958E0F9F1F08950F931F93CF93DF93AF
:100D0000FB01238121FD03C08FEF9FEF2CC022FF49
:100D100016C046815781248135814217530744F418
:100D2000A081B1819D012F5F3F4F318320838C9340
:100D3000268137812F5F3F4F3783268314C08B0175
:100D4000EC01FB010084F185E02D0995892BE1F68A
:100D5000D80116968D919C911797019617969C93A2
:100D60008E931697CE01DF91CF911F910F91089529
:100D7000FA01AA27283051F1203181F1E8946F93CC
:100D80006E7F6E5F7F4F8F4F9F4FAF4FB1E03ED072
:100D9000B4E03CD0670F781F891F9A1FA11D680F10
:100DA000791F8A1F911DA11D6A0F711D811D911D43
:100DB000A11D20D009F468943F912AE0269F1124B8
:100DC0003019305D3193DEF6CF010895462F47701C
:100DD000405D4193B3E00FD0C9F7F6CF462F4F7077
:100DE000405D4A3318F0495D31FD4052419302D0D5
:100DF000A9F7EACFB4E0A69597958795779567957B
:100E0000BA95C9F700976105710508959B01AC017A
:100E10000A2E06945795479537952795BA95C9F7A1
:100E2000620F731F841F951FA01D08952F923F927C
:100E30004F925F926F927F928F929F92AF92BF92EA
:100E4000CF92DF92EF92FF920F931F93CF93DF9396
:100E5000CDB7DEB7CA1BDB0B0FB6F894DEBF0FBEF3
:100E6000CDBF09942A88398848885F846E847D8440
:100E70008C849B84AA84B984C884DF80EE80FD8042
:100E80000C811B81AA81B981CE0FD11D0FB6F894B8
:0E0E9000DEBF0FBECDBFED010895F894FFCF79
:100E9E00010102010101020101010303030000022D
:100EAE0087019201870192019D01A901B601C1013D
:100EBE00CC01D901E601F101CC01D901FC010702F7
:100ECE00CC01D90112021D0212021D0228023302A8
:100EDE003E02490254025F026C027C028E029902AB
:100EEE00A5020000AF020000B9020000C30200001C
:100EFE00CD020000D7020000E1020000EB0200006C
:100F0E00F6020000000300000B03000015030000B2
:100F1E00200300002E033E0343034F035A036C03CA
:100F2E00013120504C41594552204F4E4C59000032
:100F3E0000476F20746F207374617274000000009C
:100F4E0000466F727761726421000000000000009D
:100F5E00004E4F20504C4159455220464F554E445D
:100F6E0000474F204241434B2C204368656174215A
:100F7E000054454D5020414C4552542121002564CA
:100F8E0000446F6F7220005472696573206C656641
:100F9E00743A200057726F6E6700436F6E6772610E
:100FAE0074756C6174696F6E732100202020205956
:100FBE004F552057494E0031292034202032292008
:100FCE0035003329203620203429203700312920BE
:100FDE00392020322920313200332920313020208F
:100FEE003429203135003129203220203229203376
:100FFE000033292034202034292035003129203196
:10100E003020203229203131003329203132202066
:10101E003429203133003129203320203229203445
:10102E000033292035202034292036003129203163
:10103E002020322920320033292033202034292049
:10104E003400312920362020322920370033292040
:10105E00382020342920390031292034202032290B
:10106E00203700332920362020342920350031291D
:10107E0020342020322920300033292036202034FD
:10108E00292033003129203120203229203000330D
:10109E002920652020342920312F65003129206E2A
:1010AE006F756E202032292061646A003329207604
:1010BE00657262202034296164766572620031297E
:1010CE0020302020322920320033292031202034B4
:1010DE00292031300033202B2032203D203F003894
:1010EE00202D2033203D203F0035202A2032203D68
:1010FE00203F0039202F2033203D203F0037202B6A
:10110E002034203D203F0036202D2032203D203F30
:10111E000034202A2033203D203F003130202F2064
:10112E0035203D203F0035202B2036203D203F002E
:10113E003132202D2035203D203F0033202A203310
:10114E00203D203F003135202F2033203D203F0011
:10115E00793D33782C2064792F64783D3F006C699B
:10116E006D202828655E782D31292F782900782D5D
:10117E003E300041686D656420706C61797300616A
:10118E00686D6564206973203F00486F77204D615C
:10119E006E792066696E676572733F0069732048C9
:0E11AE006173616E2072616973696E67000083
:00000001FF
