:100000000C942A000C9447000C9447000C94470071
:100010000C9447000C9447000C9447000C94610129
:100020000C9447000C9447000C9447000C94470034
:100030000C9447000C9447000C9447000C94470024
:100040000C9447000C9447000C9447000C94470014
:100050000C94470011241FBECFE5D8E0DEBFCDBF12
:1000600013E0A0E6B0E0EEE5FFE002C005900D92DF
:10007000A438B107D9F723E0A4E8B3E001C01D928A
:10008000AE3AB207E1F70E9426040C94AD070C9437
:10009000000087B1806487B986B1876886B9089502
:1000A00089B3881F8827881F8093980320E030E059
:1000B00019C0B9016F5F7F4F46B381E090E0FC014A
:1000C00002C0EE0FFF1F2A95E2F7842F90E08E23E7
:1000D0009F2321E0892B09F420E0FB01E856FC4F27
:1000E00020839B012530310524F308959C018EB5B2
:1000F00088608EBD8EB583608EBD032E000C440BD0
:10010000550B67E478EE81E090E00E947B043BBDF4
:100110002ABD89B7806189BF7894089589B38170B9
:10012000809385030895CF93DF93CDB7DEB7C05595
:10013000D1090FB6F894DEBF0FBECDBF80E1E1E27A
:10014000F1E0DE01119601900D928A95E1F78EE0C3
:10015000E1EFF0E0DE01519601900D928A95E1F712
:1001600018A21F8E8CE0E1E0F1E0DE019196019093
:100170000D928A95E1F7FE01BD9684E0DF011D92A4
:100180008A95E9F780E1E1E3F1E0DE01D1960190A3
:100190000D928A95E1F789E0E1E1F1E0DE01AF5BE4
:1001A000BF4F01900D928A95E1F7FE01E65BFF4F8C
:1001B00087E0DF011D928A95E9F780E090E020E07A
:1001C00006C0FC01E856FC4F3081230F01968630B3
:1001D0009105BCF3309186038BEA389F812D112461
:1001E00086958695982F990F890F982F990F832FB1
:1001F000891B809386039091F000992309F445C0F0
:10020000213071F5E82FF0E0E856FC4F90819923FA
:1002100019F0109284034BC091E09093840390E016
:100220001CC0E92FF0E0E856FC4F20812223A1F00A
:10023000981750F4863041F0BE016F5B7F4F88E81D
:1002400093E00E94BC0433C0BE016F5C7F4F88E81E
:1002500093E00E94BC042BC09F5F963010F327C030
:10026000211108C0BE016F5F7F4F88E893E00E94B4
:10027000BC0407C0BE016F5E7F4F88E893E00E9418
:10028000BC0481E08093840312C0222359F0BE0194
:100290006F5D7F4F88E893E00E94BC0481E080930B
:1002A000840305C01092840381E08093F000C05B5A
:1002B000DF4F0FB6F894DEBF0FBECDBFDF91CF91F9
:1002C00008951F920F920FB60F9211242F933F9310
:1002D0004F935F936F937F938F939F93AF93BF934E
:1002E000EF93FF930E948E000E9450000E949300A3
:1002F0008091870390E001968F709078992324F481
:100300000197806F9F6F01968093870382E090E052
:100310000E947600FF91EF91BF91AF919F918F91D5
:100320007F916F915F914F913F912F910F900FBEF1
:100330000F901F9018959BB3282F269528779778B4
:10034000922B9BBB9BB39D7F9BBB9BB394609BBB42
:100350002AE62A95F1F700C09BB39B7F9BBB9AE6E8
:100360009A95F1F700C02BB390E0880F991F880F82
:10037000991F880F991F922F97788877892B8BBBAD
:100380008BB384608BBB2AE62A95F1F700C08BB350
:100390008B7F8BBB8FEF99EF20E081509040204006
:1003A000E1F700C00000089548B3282F30E02A5F2D
:1003B0003F4F81E090E002C0880F991F2A95E2F735
:1003C000242F282B28BB611107C0EFE1F3E0319700
:1003D000F1F700C0000004C0FAE6FA95F1F700C09A
:1003E00098B38095892388BB2FEF89EF90E0215047
:1003F00080409040E1F700C000000895843010F480
:100400002EEF01C022E0280F32B381E090E002C05D
:10041000880F991F2A95E2F7232F282B22BB611101
:1004200007C0EFE1F3E03197F1F700C0000004C02E
:10043000FAE6FA95F1F700C092B38095892382BB62
:100440002FEF89EF90E0215080409040E1F700C00D
:1004500000000895CF93823048F491E0811101C0EB
:1004600090E061E0892F0E94D40117C0863020F40B
:1004700061E00E94FE0111C060E080E00E94D401B2
:1004800060E081E00E94D401C2E005C060E08C2FF2
:100490000E94FE01CF5FC630C8F384E190E00E9465
:1004A0007600CF910895AC0160E033C02BB39695F0
:1004B00098772778922B9BBB8BB382608BBB8BB3D7
:1004C00084608BBB80E58A95F1F78BB38B7F8BBB08
:1004D00090E59A95F1F78BB39081292F30E0220FA8
:1004E000331F220F331F220F331F87782877282BC3
:1004F0002BBB8BB384608BBB80E58A95F1F79BB3F4
:100500009B7F9BBB8FE59AEE0197F1F700C000003F
:100510006F5FFA01E60FF11D90819111C7CF089529
:100520002FEF89EF90E0215080409040E1F700C02C
:10053000000082E00E949B0188E20E949B018CE007
:100540000E949B0186E00E949B0181E00E949B012A
:100550002FEF89EF90E0215080409040E1F700C0FC
:1005600000000895CF93DF93EC010CC081E491E08B
:100570000E9453028FE59AEE0197F1F700C0000048
:100580000E949002809185038111F0CF0CC088E811
:1005900093E00E9453028FE59AEE0197F1F700C0B5
:1005A00000000E949002809184038111F0CFCE015F
:1005B0000E945302DF91CF910895EF92FF920F9323
:1005C0001F93CF93DF93809187030AC0CE010196DA
:1005D0008F709078992324F40197806F9F6F019614
:1005E000C82FD0E0FE01E256FC4F80818111EECF92
:1005F00081E0FE01E256FC4F80830E9490028E0152
:10060000000F111F000F111FC80180559F4F7C0163
:10061000FC01808191810E94B2028FE19EE40197EA
:10062000F1F700C0000080EC0E949B01F70182817D
:1006300093810E94B2028FE19EE40197F1F700C01E
:1006400000000E94900200591F4FF80180819181A3
:100650000E94B2028FE19EE40197F1F700C0000012
:1006600080EC0E949B01F801828193810E94B2027A
:100670008FE19EE40197F1F700C0000022E02EC058
:1006800080B3422F50E090E0022E02C095958795EE
:100690000A94E2F780FF21C085B3806285BB9FEF9B
:1006A000E0E7F2E09150E040F040E1F700C00000E8
:1006B00085B38F7D85BB8FE39CE90197F1F700C07F
:1006C000000042505109C05ADF4F288130E081E0DC
:1006D0004217530761F080E00AC02F5F263080F296
:1006E000EFE1FEE43197F1F700C0000086CFDF9123
:1006F000CF911F910F91FF90EF900895DF92EF92AD
:10070000FF920F931F93CF93DF931F92CDB7DEB766
:1007100080E1EEE9F3E0DF011D928A95E9F786E0DA
:100720000E942A02D12C7EC085B3909186039F5FE0
:10073000887F892B85BB8091860390E001969F93EB
:100740008F930F2EFEE4EF2EF1E0FF2EF02DFF929F
:10075000EF928E010F5F1F4F1F930F930E94C304F0
:100760000E94900281E591E00E94B202C8010E94BD
:10077000B2028FE19EE40197F1F700C0000083E030
:1007800090E08D1991099F938F93FF92EF921F93A1
:100790000F930E94C30480EC0E949B0187E591E0C7
:1007A0000E94B202AFE9BFE01197F1F700C000006C
:1007B000C8010E94B2028FE19EE40197F1F700C0E8
:1007C0000000809186030E94DD020FB6F894DEBF20
:1007D0000FBECDBF8823B1F080918603863019F417
:1007E0000E942A0206C091E0980F909386030E940F
:1007F0002A0285B3909186039F5F887F892B85BBF2
:10080000D12C10C0D3940E94900284E691E00E9403
:10081000B202BFEF29EF30E0B15020403040E1F7A5
:1008200000C0000082E08D1508F07ECF1092860394
:1008300081E092E09D1508F480E00F90DF91CF9168
:100840001F910F91FF90EF90DF9008950E94490053
:100850008EE78ABB80EC87BB83EC81BB8FEF84BBC8
:1008600018BA81E085BB12BA1BBA2FEF89EF90E06E
:10087000215080409040E1F700C0000086E0E8E9A8
:10088000F3E0DF011D928A95E9F70E9490028AE663
:1008900091E00E94B20284E190E00E947600BFEFF6
:1008A00020E782E0B15020408040E1F700C0000026
:1008B0000E947E038823E1F00E94900280E791E08D
:1008C0000E94B202AFE5BAEE1197F1F700C0000046
:1008D00080EC0E949B0181E891E00E94B202BFEF90
:1008E00021EE84E0B15020408040E1F700C00000DC
:1008F0001092F000DDCF052E97FB1EF400940E94AD
:10090000920457FD07D00E949A0407FC03D04EF4CE
:100910000C94920450954095309521953F4F4F4F40
:100920005F4F089590958095709561957F4F8F4F9B
:100930009F4F0895A1E21A2EAA1BBB1BFD010DC0FB
:10094000AA1FBB1FEE1FFF1FA217B307E407F5077F
:1009500020F0A21BB30BE40BF50B661F771F881F5B
:10096000991F1A9469F760957095809590959B01F1
:10097000AC01BD01CF010895FB01DC0101900D9296
:100980000020E1F70895AEE0B0E0E9ECF4E00C946B
:1009900084070D891E8986E08C831A8309838FEF73
:1009A0009FE79E838D83AE01475E5F4F6F89788D91
:1009B000CE0101960E94E504EF81F885E00FF11F5A
:1009C00010822E96E4E00C94A007ABE0B0E0EBEED2
:1009D000F4E00C9476076C017B018A01FC0117821C
:1009E0001682838181FFCCC1CE0101963C01F601C4
:1009F0009381F70193FD859193FF81917F01882376
:100A000009F4BAC1853239F493FD859193FF819140
:100A10007F01853229F4B60190E00E94DC06E7CF21
:100A2000912C212C312CFFE1F315D8F08B3279F089
:100A300038F4803279F08332A1F4232D20611DC077
:100A40008D3261F0803369F4232D216016C0832D2F
:100A50008260382EE32DE4603E2E2AC0F32DF8602C
:100A60001DC037FC2DC020ED280F2A3040F08E32FB
:100A7000B9F436FC81C1232D2064322E19C036FE14
:100A800006C08AE0989E200D1124922E11C0EAE043
:100A90002E9E200D1124222EF32DF0623F2E08C031
:100AA0008C3621F4832D8068382E02C0883641F4BC
:100AB000F70193FD859193FF81917F018111B3CF60
:100AC000982F9F7D9554933028F40C5F1F4F9FE320
:100AD00099830DC0833631F0833771F0833509F087
:100AE00059C021C0F801808189830E5F1F4F88247F
:100AF0008394912C530113C02801F2E04F0E511C36
:100B0000F801A080B18036FE03C0692D70E002C0FC
:100B10006FEF7FEFC5010E94D1064C018201F32DDA
:100B2000FF773F2E16C0280122E0420E511CF8012B
:100B3000A080B18036FE03C0692D70E002C06FEF67
:100B40007FEFC5010E94C6064C01F32DF0683F2ED1
:100B5000820133FC1BC0822D90E088169906B0F408
:100B6000B60180E290E00E94DC062A94F4CFF50101
:100B700037FC859137FE81915F01B60190E00E94BC
:100B8000DC0621102A9421E0821A91088114910434
:100B900071F7E8C0843611F0893641F5F80137FE67
:100BA00007C060817181828193810C5F1F4F08C0F3
:100BB00060817181072E000C880B990B0E5F1F4F0F
:100BC000F32DFF763F2E97FF09C090958095709585
:100BD00061957F4F8F4F9F4FF0683F2E2AE030E0A6
:100BE000A3010E941807882E861845C0853731F466
:100BF000232D2F7EB22E2AE030E025C0932D997F41
:100C0000B92E8F36C1F018F4883579F0B5C0803729
:100C100019F0883721F0B0C0E92FE061BE2EB4FE94
:100C20000DC0FB2DF460BF2E09C034FE0AC0292F71
:100C30002660B22E06C028E030E005C020E130E09A
:100C400002C020E132E0F801B7FE07C06081718187
:100C5000828193810C5F1F4F06C06081718180E0AB
:100C600090E00E5F1F4FA3010E941807882E861880
:100C7000FB2DFF773F2E36FE0DC0232D2E7FA22E9B
:100C8000891458F434FE0BC032FC09C0832D8E7ECB
:100C9000A82E05C0B82CA32C03C0B82C01C0B92CB9
:100CA000A4FE0FC0FE01E80DF11D8081803321F408
:100CB0009A2D997EA92E09C0A2FE06C0B394B394C2
:100CC00004C08A2D867809F0B394A3FC11C0A0FE5D
:100CD00006C0B21488F4280C922C9B180EC0B214D3
:100CE00060F4B60180E290E00E94DC06B394F7CF96
:100CF000B21418F42B1802C0982C212CA4FE10C09A
:100D0000B60180E390E00E94DC06A2FE17C0A1FCC1
:100D100003C088E790E002C088E590E0B6010CC00F
:100D20008A2D867859F0A1FE02C08BE201C080E2D4
:100D3000A7FC8DE2B60190E00E94DC06891438F42D
:100D4000B60180E390E00E94DC069A94F7CF8A9483
:100D5000F301E80DF11D8081B60190E00E94DC06F0
:100D60008110F5CF222009F442CEB60180E290E056
:100D70000E94DC062A94F6CFF6018681978102C094
:100D80008FEF9FEF2B96E2E10C949207FC01059008
:100D9000615070400110D8F7809590958E0F9F1F7D
:100DA0000895FC016150704001900110D8F78095C2
:100DB00090958E0F9F1F08950F931F93CF93DF93EE
:100DC000FB01238121FD03C08FEF9FEF2CC022FF89
:100DD00016C046815781248135814217530744F458
:100DE000A081B1819D012F5F3F4F318320838C9380
:100DF000268137812F5F3F4F3783268314C08B01B5
:100E0000EC01FB010084F185E02D0995892BE1F6C9
:100E1000D80116968D919C911797019617969C93E1
:100E20008E931697CE01DF91CF911F910F91089568
:100E3000FA01AA27283051F1203181F1E8946F930B
:100E40006E7F6E5F7F4F8F4F9F4FAF4FB1E03ED0B1
:100E5000B4E03CD0670F781F891F9A1FA11D680F4F
:100E6000791F8A1F911DA11D6A0F711D811D911D82
:100E7000A11D20D009F468943F912AE0269F1124F7
:100E80003019305D3193DEF6CF010895462F47705B
:100E9000405D4193B3E00FD0C9F7F6CF462F4F70B6
:100EA000405D4A3318F0495D31FD4052419302D014
:100EB000A9F7EACFB4E0A6959795879577956795BA
:100EC000BA95C9F700976105710508959B01AC01BA
:100ED0000A2E06945795479537952795BA95C9F7E1
:100EE000620F731F841F951FA01D08952F923F92BC
:100EF0004F925F926F927F928F929F92AF92BF922A
:100F0000CF92DF92EF92FF920F931F93CF93DF93D5
:100F1000CDB7DEB7CA1BDB0B0FB6F894DEBF0FBE32
:100F2000CDBF09942A88398848885F846E847D847F
:100F30008C849B84AA84B984C884DF80EE80FD8081
:100F40000C811B81AA81B981CE0FD11D0FB6F894F7
:0E0F5000DEBF0FBECDBFED010895F894FFCFB8
:100F5E00010102010101020101010303030000026C
:100F6E008D0198018D019801A301AF01BC01C7014C
:100F7E00D201DF01EC01F701D201DF0102020D0205
:100F8E00D201DF0118022302180223022E023902B7
:100F9E0044024F025A0265027202820294029F02BA
:100FAE00AB020000B5020000BF020000C902000043
:100FBE00D3020000DD020000E7020000F102000093
:100FCE00FC02000006030000110300001B030000DA
:100FDE0026030000340344034903550360037203E0
:100FEE00013120504C41594552204F4E4C59000072
:100FFE0000476F20746F20737461727400000000DC
:10100E0000466F72776172642100000000000000DC
:10101E00004E4F20504C4159455220464F554E449C
:10102E0000474F204241434B2C2043686561742199
:10103E000054454D5020414C455254212100256409
:10104E0000446F6F7220005472696573206C656680
:10105E00743A200057726F6E670048414C4C4F0037
:10106E00436F6E67726174756C6174696F6E732114
:10107E000020202020594F552057494E003129205D
:10108E0034202032292035003329203620203429DF
:10109E0020370031292039202032292031320033E7
:1010AE0029203130202034292031350031292032B9
:1010BE0020203229203300332920342020342920C7
:1010CE0035003129203130202032292031310033B2
:1010DE002920313220203429203133003129203388
:1010EE002020322920340033292035202034292095
:1010FE003600312920312020322920320033292098
:10110E003320203429203400312920362020322962
:10111E002037003329203820203429203900312966
:10112E002034202032292037003329203620203445
:10113E002920350031292034202032292030003357
:10114E002920362020342920330031292031202037
:10115E003229203000332920652020342920312FD8
:10116E0065003129206E6F756E2020322920616452
:10117E006A003329207665726220203429616476F4
:10118E00657262003129203020203229203200334E
:10119E00292031202034292031300033202B2032D9
:1011AE00203D203F0038202D2033203D203F0035AC
:1011BE00202A2032203D203F0039202F2033203D91
:1011CE00203F0037202B2034203D203F0036202D9D
:1011DE002032203D203F0034202A2033203D203F66
:1011EE00003130202F2035203D203F0035202B2090
:1011FE0036203D203F003132202D2035203D203F2E
:10120E000033202A2033203D203F003135202F206F
:10121E0033203D203F00793D33782C2064792F64B4
:10122E00783D3F006C696D202828655E782D312948
:10123E002F782900782D3E300041686D656420704E
:10124E006C6179730061686D6564206973203F007D
:10125E00486F77204D616E792066696E676572738F
:10126E003F0069732048617373616E207261697308
:04127E00696E67002E
:00000001FF
