S00C0000436F64652E737265639D
S11300000C942A000C9447000C9447000C9447006D
S11300100C9447000C9447000C9447000C94D103B3
S11300200C9447000C9447000C9447000C94470030
S11300300C9447000C9447000C9447000C94470020
S11300400C9447000C9447000C9447000C94470010
S11300500C94470011241FBECFE5D8E0DEBFCDBF0E
S113006012E0A0E6B0E0E2EEFEE002C005900D92E0
S1130070AE3EB107D9F723E0AEEEB2E001C01D9267
S1130080A831B207E1F70E9409040C946F070C949D
S113009000009C018EB588608EBD8EB583608EBDD8
S11300A0032E000C440B550B67E478EE81E090E0DE
S11300B00E943D043BBD2ABD89B7806189BF789405
S11300C00895CF93DF93CDB7DEB7C055D1090FB6EE
S11300D0F894DEBF0FBECDBF80E1E1E9F0E0DE01C0
S11300E0119601900D928A95E1F78EE0E1E6F0E039
S11300F0DE01519601900D928A95E1F718A21F8EA8
S11301008CE0E1E7F0E0DE01919601900D928A9592
S1130110E1F7FE01BD9684E0DF011D928A95E9F7BF
S113012080E1E1EAF0E0DE01D19601900D928A953A
S1130130E1F789E0E1E8F0E0DE01AF5BBF4F019059
S11301400D928A95E1F7FE01E65BFF4F87E0DF0140
S11301501D928A95E9F780E090E020E006C0FC015A
S1130160EE5FFC4F3081230F019685309105BCF37F
S11301703091F0028BEA389F812D11248695869563
S1130180982F990F890F982F990F832F891B80938C
S1130190F00290916000992309F445C0213071F573
S11301A0E82FF0E0EE5FFC4F9081992319F0109254
S11301B0EE024BC091E09093EE0290E01CC0E92F58
S11301C0F0E0EE5FFC4F20812223A1F0981750F459
S11301D0863041F0BE016F5B7F4F82EF92E00E9458
S11301E07E0433C0BE016F5C7F4F82EF92E00E94B9
S11301F07E042BC09F5F963010F327C0211108C0E6
S1130200BE016F5F7F4F82EF92E00E947E0407C0C1
S1130210BE016F5E7F4F82EF92E00E947E0481E018
S11302208093EE0212C0222359F0BE016F5D7F4F0E
S113023082EF92E00E947E0481E08093EE0205C08A
S11302401092EE0281E080936000C05BDF4F0FB636
S1130250F894DEBF0FBECDBFDF91CF9108959BB35D
S1130260282F269528779778922B9BBB9BB39D7F4D
S11302709BBB9BB394609BBB2AE62A95F1F700C015
S11302809BB39B7F9BBB9AE69A95F1F700C02BB377
S113029090E0880F991F880F991F880F991F922F3C
S11302A097788877892B8BBB8BB384608BBB2AE6CA
S11302B02A95F1F700C08BB38B7F8BBB8FEF99EF3F
S11302C020E0815090402040E1F700C000000895F4
S11302D048B3282F30E02A5F3F4F81E090E002C00E
S11302E0880F991F2A95E2F7242F282B28BB662311
S11302F039F0EFE9FFE03197F1F700C0000006C0E4
S1130300EFE3FFE13197F1F700C0000098B3809567
S1130310892388BB662351F0FFE72DEE80E0F1507E
S113032020408040E1F700C0000008959FEFE0EE18
S1130330F0E09150E040F040E1F700C00000089583
S1130340843010F42EEF01C022E0280F32B381E094
S113035090E002C0880F991F2A95E2F7232F282BDB
S113036022BB662339F0EFE9FFE03197F1F700C0D3
S1130370000006C0EFE3FFE13197F1F700C0000091
S113038092B38095892382BB662351F0FFE72DEE5B
S113039080E0F15020408040E1F700C00000089563
S11303A09FEFE0EEF0E09150E040F040E1F700C054
S11303B000000895CF93823048F491E0811101C088
S11303C090E061E0892F0E94680117C0863020F414
S11303D061E00E94A00111C060E080E00E94680119
S11303E060E081E00E946801C2E005C060E08C2FFB
S11303F00E94A001CF5FC630C8F384E190E00E9460
S11304004900CF910895AC0160E033C02BB39695B9
S113041098772778922B9BBB8BB382608BBB8BB373
S113042084608BBB80E58A95F1F78BB38B7F8BBBA4
S113043090E59A95F1F78BB39081292F30E0220F44
S1130440331F220F331F220F331F87782877282B5F
S11304502BBB8BB384608BBB80E58A95F1F79BB390
S11304609B7F9BBB8FE59AEE0197F1F700C00000DC
S11304706F5FFA01E60FF11D90819111C7CF0895C6
S11304802FEF89EF90E0215080409040E1F700C0C9
S1130490000082E00E942F0188E20E942F018CE07C
S11304A00E942F0186E00E942F0181E00E942F010B
S11304B02FEF89EF90E0215080409040E1F700C099
S11304C0000008950F931F93CF93DF938C01C0E036
S11304D0D0E011C08091EF02882361F081EB90E0BD
S11304E00E9403028FE59AEE0197F1F700C0000025
S11304F00E9440022196C530D10564F30CC082EFFE
S113050092E00E9403028FE59AEE0197F1F700C092
S113051000000E9440028091EE028111F0CFC801D8
S11305200E940302DF91CF911F910F91089587B12B
S1130530806487B986B1876886B9089597B1987F32
S11305408770892B87B986B1806486B93499FECFC8
S113055084B195B108954F925F926F927F928F927A
S11305609F92AF92BF92CF92DF92EF92FF920F933E
S11305701F93CF93DF93CDB7DEB7C056D1090FB623
S1130580F894DEBF0FBECDBF87E00E949E0221E03B
S11305908737924008F420E02093020320E030E003
S11305A019C0B9016F5F7F4F46B381E090E0FC0151
S11305B002C0EE0FFF1F2A95E2F7842F90E08E23EE
S11305C09F2321E0892B09F420E0FB01EE5FFC4F1F
S11305D020839B012530310524F30F2EF2E0EF2E0A
S11305E0F3E0FF2EF02DF70180811F928F930EEB25
S11305F010E01F930F939E012F5F3F4F49013F93DC
S11306002F930E948504F70181811F928F931F937A
S11306100F935E01F1E1AF0EB11CBF92AF920E9445
S11306208504F70182811F928F931F930F936E01AC
S1130630F1E2CF0ED11CDF92CF920E948504F70124
S113064083811F928F931F930F933E01F1E36F0EEB
S1130650711C7F926F920E948504F70184811F921E
S11306608F931F930F932E01F1E44F0E511C5F9251
S11306704F920E948504F70185811F928F931F93E7
S11306800F938E010F5A1F4F1F930F930E948504DF
S11306900FB6F894DEBF0FBECDBF0E94400289EDB5
S11306A090E00E946202C4010E9403023FEF83EDC6
S11306B090E3315080409040E1F700C000000E9478
S11306C040028DED90E00E946202C5010E94030287
S11306D0EFEFF1EE24E0E150F0402040E1F700C0FC
S11306E000000E94400281EE90E00E946202C60176
S11306F00E9403023FEF81EE94E03150804090402D
S1130700E1F700C000000E94400285EE90E00E94E4
S11307106202C3010E940302EFEFF1EE24E0E15014
S1130720F0402040E1F700C000000E94400289EE42
S113073090E00E946202C2010E9403023FEF81EE38
S113074094E0315080409040E1F700C000000E94E6
S113075040028DEE90E00E946202C8010E940302F2
S1130760EFEFF1EE24E0E150F0402040E1F700C06B
S11307700000C05ADF4F0FB6F894DEBF0FBECDBFE6
S1130780DF91CF911F910F91FF90EF90DF90CF9069
S1130790BF90AF909F908F907F906F905F904F909D
S11307A008951F920F920FB60F9211242F933F9327
S11307B04F935F936F937F938F939F93AF93BF9365
S11307C0EF93FF930E94AB020E9461008091F102BB
S11307D090E001968F709078992324F40197806FAC
S11307E09F6F01968093F10282E090E00E9449009D
S11307F0FF91EF91BF91AF919F918F917F916F91F5
S11308005F914F913F912F910F900FBE0F901F90CA
S113081018950E9497028EE78ABB80EC87BB83EC15
S113082081BB8FEF84BB18BA81E085BB12BA1BBAB7
S11308302FEF89EF90E0215080409040E1F700C015
S1130840000086E0E2E0F3E0DF011D928A95E9F71B
S113085087E00E94DA010E94400281EF90E00E944A
S11308606202BFEF20E782E0B15020408040E1F710
S113087000C000000E94AB02FDCF052E97FB1EF4C2
S113088000940E94540457FD07D00E945C0407FCA6
S113089003D04EF40C945404509540953095219512
S11308A03F4F4F4F5F4F0895909580957095619598
S11308B07F4F8F4F9F4F0895A1E21A2EAA1BBB1B97
S11308C0FD010DC0AA1FBB1FEE1FFF1FA217B30718
S11308D0E407F50720F0A21BB30BE40BF50B661F2E
S11308E0771F881F991F1A9469F7609570958095F2
S11308F090959B01AC01BD01CF010895FB01DC0182
S113090001900D920020E1F70895AEE0B0E0EBE82D
S1130910F4E00C9446070D891E8986E08C831A83C3
S113092009838FEF9FE79E838D83AE01475E5F4F00
S11309306F89788DCE0101960E94A704EF81F88516
S1130940E00FF11F10822E96E4E00C946207ABE0F6
S1130950B0E0EDEAF4E00C9438076C017B018A0105
S1130960FC0117821682838181FFCCC1CE010196DE
S11309703C01F6019381F70193FD859193FF8191E9
S11309807F01882309F4BAC1853239F493FD859136
S113099093FF81917F01853229F4B60190E00E9492
S11309A09E06E7CF912C212C312CFFE1F315D8F0D2
S11309B08B3279F038F4803279F08332A1F4232D2C
S11309C020611DC08D3261F0803369F4232D2160D4
S11309D016C0832D8260382EE32DE4603E2E2AC09B
S11309E0F32DF8601DC037FC2DC020ED280F2A30F0
S11309F040F08E32B9F436FC81C1232D2064322EAE
S1130A0019C036FE06C08AE0989E200D1124922E4D
S1130A1011C0EAE02E9E200D1124222EF32DF06247
S1130A203F2E08C08C3621F4832D8068382E02C0F6
S1130A30883641F4F70193FD859193FF81917F01FD
S1130A408111B3CF982F9F7D9554933028F40C5F78
S1130A501F4F9FE399830DC0833631F0833771F0C4
S1130A60833509F059C021C0F801808189830E5F64
S1130A701F4F88248394912C530113C02801F2E062
S1130A804F0E511CF801A080B18036FE03C0692DC1
S1130A9070E002C06FEF7FEFC5010E9493064C0126
S1130AA08201F32DFF773F2E16C0280122E0420E6B
S1130AB0511CF801A080B18036FE03C0692D70E09E
S1130AC002C06FEF7FEFC5010E9488064C01F32D31
S1130AD0F0683F2E820133FC1BC0822D90E0881603
S1130AE09906B0F4B60180E290E00E949E062A9432
S1130AF0F4CFF50137FC859137FE81915F01B60192
S1130B0090E00E949E0621102A9421E0821A910806
S1130B108114910471F7E8C0843611F0893641F5E7
S1130B20F80137FE07C060817181828193810C5F77
S1130B301F4F08C060817181072E000C880B990B30
S1130B400E5F1F4FF32DFF763F2E97FF09C0909540
S1130B508095709561957F4F8F4F9F4FF0683F2E22
S1130B602AE030E0A3010E94DA06882E861845C0E8
S1130B70853731F4232D2F7EB22E2AE030E025C0B4
S1130B80932D997FB92E8F36C1F018F4883579F0FA
S1130B90B5C0803719F0883721F0B0C0E92FE06183
S1130BA0BE2EB4FE0DC0FB2DF460BF2E09C034FE72
S1130BB00AC0292F2660B22E06C028E030E005C006
S1130BC020E130E002C020E132E0F801B7FE07C0C6
S1130BD060817181828193810C5F1F4F06C06081A7
S1130BE0718180E090E00E5F1F4FA3010E94DA063E
S1130BF0882E8618FB2DFF773F2E36FE0DC0232D41
S1130C002E7FA22E891458F434FE0BC032FC09C086
S1130C10832D8E7EA82E05C0B82CA32C03C0B82C1F
S1130C2001C0B92CA4FE0FC0FE01E80DF11D8081A6
S1130C30803321F49A2D997EA92E09C0A2FE06C004
S1130C40B394B39404C08A2D867809F0B394A3FCBA
S1130C5011C0A0FE06C0B21488F4280C922C9B1874
S1130C600EC0B21460F4B60180E290E00E949E06C9
S1130C70B394F7CFB21418F42B1802C0982C212C7B
S1130C80A4FE10C0B60180E390E00E949E06A2FE7E
S1130C9017C0A1FC03C088E790E002C088E590E09B
S1130CA0B6010CC08A2D867859F0A1FE02C08BE2F1
S1130CB001C080E2A7FC8DE2B60190E00E949E068E
S1130CC0891438F4B60180E390E00E949E069A9459
S1130CD0F7CF8A94F301E80DF11D8081B60190E00D
S1130CE00E949E068110F5CF222009F442CEB6015F
S1130CF080E290E00E949E062A94F6CFF601868157
S1130D00978102C08FEF9FEF2B96E2E10C9454077A
S1130D10FC010590615070400110D8F780959095C2
S1130D208E0F9F1F0895FC016150704001900110C7
S1130D30D8F7809590958E0F9F1F08950F931F935A
S1130D40CF93DF93FB01238121FD03C08FEF9FEF3E
S1130D502CC022FF16C04681578124813581421759
S1130D60530744F4A081B1819D012F5F3F4F31832C
S1130D7020838C93268137812F5F3F4F37832683CF
S1130D8014C08B01EC01FB010084F185E02D099571
S1130D90892BE1F6D80116968D919C9117970196AF
S1130DA017969C938E931697CE01DF91CF911F9146
S1130DB00F910895FA01AA27283051F1203181F1C9
S1130DC0E8946F936E7F6E5F7F4F8F4F9F4FAF4F4F
S1130DD0B1E03ED0B4E03CD0670F781F891F9A1F62
S1130DE0A11D680F791F8A1F911DA11D6A0F711D16
S1130DF0811D911DA11D20D009F468943F912AE022
S1130E00269F11243019305D3193DEF6CF01089509
S1130E10462F4770405D4193B3E00FD0C9F7F6CF3A
S1130E20462F4F70405D4A3318F0495D31FD405202
S1130E30419302D0A9F7EACFB4E0A6959795879598
S1130E4077956795BA95C9F7009761057105089577
S1130E509B01AC010A2E0694579547953795279523
S1130E60BA95C9F7620F731F841F951FA01D0895BB
S1130E702F923F924F925F926F927F928F929F92A6
S1130E80AF92BF92CF92DF92EF92FF920F931F9394
S1130E90CF93DF93CDB7DEB7CA1BDB0B0FB6F89445
S1130EA0DEBF0FBECDBF09942A88398848885F8485
S1130EB06E847D848C849B84AA84B984C884DF80F6
S1130EC0EE80FD800C811B81AA81B981CE0FD11DDA
S1130ED00FB6F894DEBF0FBECDBFED010895F894B0
S1050EE0FFCF3E
S1130EE2013120504C41594552204F4E4C5900007B
S1130EF200476F20746F20737461727400000000E5
S1130F0200466F72776172642100000000000000E5
S1130F12004E4F20504C4159455220464F554E44A5
S1130F2200474F204241434B2C20436865617421A2
S1130F320054454D5020414C455254212100256412
S1130F4200446F6F722000205472696573204C65EF
S1130F5266740057726F6E6700613A2000623A202D
S1130F6200633A2000643A2000653A2000663A2081
S1130F720048414C4C4F0031292034202032292092
S1130F823500332920362020342920370031292006
S1130F9239202032292031320033292031302020D7
S1130FA234292031350031292032202032292033BE
S1130FB200332920342020342920350031292031DE
S1130FC230202032292031310033292031322020AF
S1130FD2342920313300312920332020322920348E
S1130FE200332920352020342920360031292031AC
S1130FF22020322920320033292033202034292092
S11310023400312920362020322920370033292088
S11310123820203429203900312920342020322953
S11310222037003329203620203429203500312965
S11310322034202032292030003329203620203445
S11310422920330031292031202032292030003355
S11310522920652020342920312F65003129206E72
S11310626F756E202032292061646A00332920764C
S113107265726220203429616476657262003129C6
S113108220302020322920320033292031202034FC
S1131092292031300033202B2032203D203F0038DC
S11310A2202D2033203D203F0035202A2032203DB0
S11310B2203F0039202F2033203D203F0037202BB2
S11310C22034203D203F0036202D2032203D203F79
S11310D20034202A2033203D203F003130202F20AD
S11310E235203D203F0035202B2036203D203F0077
S11310F23132202D2035203D203F0033202A203359
S1131102203D203F003135202F2033203D203F0059
S1131112793D33782C2064792F64783D3F006C69E3
S11311226D202828655E782D31292F782900782DA5
S11311323E300041686D656420706C6179730061B2
S1131142686D6564206973203F00486F77204D61A4
S11311526E792066696E676572733F006973204811
S1111162617373616E2072616973696E670058
S9030000FC
