:100000000C942A000C9447000C9447000C94470071
:100010000C9447000C9447000C9447000C94520138
:100020000C9447000C9447000C9447000C94470034
:100030000C9447000C9447000C9447000C94470024
:100040000C9447000C9447000C9447000C94470014
:100050000C94470011241FBECFE5D8E0DEBFCDBF12
:1000600013E0A0E6B0E0EEE3FFE002C005900D92E1
:10007000A438B107D9F723E0A4E8B3E001C01D928A
:10008000AE3AB207E1F70E9416040C949D070C9457
:10009000000087B1806487B986B1876886B9089502
:1000A00089B3881F8827881F8093980320E030E059
:1000B00019C0B9016F5F7F4F46B381E090E0FC014A
:1000C00002C0EE0FFF1F2A95E2F7842F90E08E23E7
:1000D0009F2321E0892B09F420E0FB01E856FC4F27
:1000E00020839B012530310524F308959C018EB5B2
:1000F00088608EBD8EB583608EBD032E000C440BD0
:10010000550B67E478EE81E090E00E946B043BBD04
:100110002ABD89B7806189BF7894089589B38170B9
:10012000809385030895CF93DF93CDB7DEB7C05595
:10013000D1090FB6F894DEBF0FBECDBF80E1E1E27A
:10014000F1E0DE01119601900D928A95E1F78EE0C3
:10015000E1EFF0E0DE01519601900D928A95E1F712
:1001600018A21F8E8CE0E1E0F1E0DE019196019093
:100170000D928A95E1F7FE01BD9684E0DF011D92A4
:100180008A95E9F780E1E1E3F1E0DE01D1960190A3
:100190000D928A95E1F789E0E1E1F1E0DE01AF5BE4
:1001A000BF4F01900D928A95E1F7FE01E65BFF4F8C
:1001B00087E0DF011D928A95E9F780E090E020E07A
:1001C00006C0FC01E856FC4F3081230F01968630B3
:1001D0009105BCF38091F000882309F447C02130D9
:1001E00081F520918603E22FF0E0E856FC4F8081F4
:1001F000882319F0109284034BC081E0809384031C
:1002000080E01CC0E82FF0E0E856FC4F9081992375
:10021000A1F0821750F4263041F0BE016F5B7F4F92
:1002200088E893E00E94AC0433C0BE016F5C7F4F4E
:1002300088E893E00E94AC042BC08F5F863010F3F7
:1002400027C0211108C0BE016F5F7F4F88E893E08F
:100250000E94AC0407C0BE016F5E7F4F88E893E048
:100260000E94AC0481E08093840312C0222359F0E1
:10027000BE016F5D7F4F88E893E00E94AC0481E08F
:100280008093840305C01092840381E08093F00082
:10029000C05BDF4F0FB6F894DEBF0FBECDBFDF915E
:1002A000CF9108951F920F920FB60F9211242F93A2
:1002B0003F934F935F936F937F938F939F93AF93EE
:1002C000BF93EF93FF930E948E000E9450000E9404
:1002D00093008091870390E001968F709078992326
:1002E00024F40197806F9F6F01968093870382E0CB
:1002F00090E00E947600FF91EF91BF91AF919F91A6
:100300008F917F916F915F914F913F912F910F90BE
:100310000FBE0F901F9018959BB3282F2695287716
:100320009778922B9BBB9BB39D7F9BBB9BB39460A9
:100330009BBB2AE62A95F1F700C09BB39B7F9BBB32
:100340009AE69A95F1F700C02BB390E0880F991FB9
:10035000880F991F880F991F922F97788877892B7C
:100360008BBB8BB384608BBB2AE62A95F1F700C068
:100370008BB38B7F8BBB8FEF99EF20E08150904048
:100380002040E1F700C00000089548B3282F30E076
:100390002A5F3F4F81E090E002C0880F991F2A95A5
:1003A000E2F7242F282B28BB611107C0EFE1F3E00F
:1003B0003197F1F700C0000004C0FAE6FA95F1F7B2
:1003C00000C098B38095892388BB2FEF89EF90E018
:1003D000215080409040E1F700C000000895843033
:1003E00010F42EEF01C022E0280F32B381E090E03C
:1003F00002C0880F991F2A95E2F7232F282B22BBD2
:10040000611107C0EFE1F3E03197F1F700C00000A0
:1004100004C0FAE6FA95F1F700C092B380958923FB
:1004200082BB2FEF89EF90E0215080409040E1F7B0
:1004300000C000000895CF93823048F491E081110C
:1004400001C090E061E0892F0E94C50117C086308D
:1004500020F461E00E94EF0111C060E080E00E94A2
:10046000C50160E081E00E94C501C2E005C060E016
:100470008C2F0E94EF01CF5FC630C8F384E190E07B
:100480000E947600CF910895AC0160E033C02BB399
:10049000969598772778922B9BBB8BB382608BBB0A
:1004A0008BB384608BBB80E58A95F1F78BB38B7F30
:1004B0008BBB90E59A95F1F78BB39081292F30E0B3
:1004C000220F331F220F331F220F331F8778287705
:1004D000282B2BBB8BB384608BBB80E58A95F1F70F
:1004E0009BB39B7F9BBB8FE59AEE0197F1F700C012
:1004F00000006F5FFA01E60FF11D90819111C7CFE7
:1005000008952FEF89EF90E0215080409040E1F76F
:1005100000C0000082E00E948C0188E20E948C01F1
:100520008CE00E948C0186E00E948C0181E00E9498
:100530008C012FEF89EF90E0215080409040E1F74F
:1005400000C000000895CF93DF93EC010CC081E45C
:1005500091E00E9444028FE59AEE0197F1F700C006
:1005600000000E948102809185038111F0CF0CC0B0
:1005700088E893E00E9444028FE59AEE0197F1F734
:1005800000C000000E948102809184038111F0CF9D
:10059000CE010E944402DF91CF910895EF92FF9225
:1005A0000F931F93CF93DF93809187030AC0CE01EF
:1005B00001968F709078992324F40197806F9F6F34
:1005C0000196C82FD0E0FE01E256FC4F80818111D8
:1005D000EECF81E0FE01E256FC4F80830E94810253
:1005E0008E01000F111F000F111FC80180559F4F72
:1005F0007C01FC01808191810E94A3028FE19EE435
:100600000197F1F700C0000080EC0E948C01F70117
:10061000828193810E94A3028FE19EE40197F1F70A
:1006200000C000000E94810200591F4FF801808124
:1006300091810E94A3028FE19EE40197F1F700C02F
:10064000000080EC0E948C01F801828193810E945D
:10065000A3028FE19EE40197F1F700C0000022E0C1
:100660002EC080B3422F50E090E0022E02C095953C
:1006700087950A94E2F780FF21C085B3806285BB2D
:100680009FEFE0E7F2E09150E040F040E1F700C07A
:10069000000085B38F7D85BB8FE39CE90197F1F75F
:1006A00000C0000042505109C05ADF4F288130E09D
:1006B00081E04217530761F080E00AC02F5F2630C7
:1006C00080F2EFE1FEE43197F1F700C0000086CF41
:1006D000DF91CF911F910F91FF90EF900895DF92DE
:1006E000EF92FF920F931F93CF93DF931F92CDB79B
:1006F000DEB780E1EEE9F3E0DF011D928A95E9F7CC
:1007000086E00E941B02D12C79C095B3987F8F5F41
:10071000892B85BB8091860390E001969F938F93F0
:100720000F2EFEE4EF2EF1E0FF2EF02DFF92EF9260
:100730008E010F5F1F4F1F930F930E94B3040E94FF
:10074000810281E591E00E94A302C8010E94A302F8
:100750008FE19EE40197F1F700C0000083E090E094
:100760008D1991099F938F93FF92EF921F930F938F
:100770000E94B304D8010D900020E9F711978CE096
:10078000E7E5F1E001900D928A95E1F780EC0E9497
:100790008C01C8010E94A302AFE1BEE41197F1F7FA
:1007A00000C00000809186030E94CE020FB6F8942C
:1007B000DEBF0FBECDBF882389F08091860391E014
:1007C000980F909386030E941B0285B39091860335
:1007D0009F5F887F892B85BBD12C10C0D3940E944A
:1007E000810283E691E00E94A3023FEF89EF90E04F
:1007F000315080409040E1F700C00000A2E0AD150C
:1008000028F080918603863009F07FCF109286030E
:1008100081E0B2E0BD1508F480E00F90DF91CF9148
:100820001F910F91FF90EF90DF9008950E94490073
:100830008EE78ABB80EC87BB83EC81BB8FEF84BBE8
:1008400018BA81E085BB12BA1BBA2FEF89EF90E08E
:10085000215080409040E1F700C0000086E0E8E9C8
:10086000F3E0DF011D928A95E9F70E94810289E693
:1008700091E00E94A30284E190E00E947600BFEF25
:1008800020E782E0B15020408040E1F700C0000046
:100890000E946F038823E1F00E9481028FE691E0BD
:1008A0000E94A302AFE5BAEE1197F1F700C0000075
:1008B00080EC0E948C0180E891E00E94A302BFEFCF
:1008C00021EE84E0B15020408040E1F700C00000FC
:1008D0001092F000DDCF052E97FB1EF400940E94CD
:1008E000820457FD07D00E948A0407FC03D04EF40F
:1008F0000C94820450954095309521953F4F4F4F71
:100900005F4F089590958095709561957F4F8F4FBB
:100910009F4F0895A1E21A2EAA1BBB1BFD010DC01B
:10092000AA1FBB1FEE1FFF1FA217B307E407F5079F
:1009300020F0A21BB30BE40BF50B661F771F881F7B
:10094000991F1A9469F760957095809590959B0111
:10095000AC01BD01CF010895FB01DC0101900D92B6
:100960000020E1F70895AEE0B0E0E9EBF4E00C948C
:1009700074070D891E8986E08C831A8309838FEFA3
:100980009FE79E838D83AE01475E5F4F6F89788DB1
:10099000CE0101960E94D504EF81F885E00FF11F8A
:1009A00010822E96E4E00C949007ABE0B0E0EBED03
:1009B000F4E00C9466076C017B018A01FC0117824C
:1009C0001682838181FFCCC1CE0101963C01F601E4
:1009D0009381F70193FD859193FF81917F01882396
:1009E00009F4BAC1853239F493FD859193FF819161
:1009F0007F01853229F4B60190E00E94CC06E7CF52
:100A0000912C212C312CFFE1F315D8F08B3279F0A9
:100A100038F4803279F08332A1F4232D20611DC097
:100A20008D3261F0803369F4232D216016C0832D4F
:100A30008260382EE32DE4603E2E2AC0F32DF8604C
:100A40001DC037FC2DC020ED280F2A3040F08E321B
:100A5000B9F436FC81C1232D2064322E19C036FE34
:100A600006C08AE0989E200D1124922E11C0EAE063
:100A70002E9E200D1124222EF32DF0623F2E08C051
:100A80008C3621F4832D8068382E02C0883641F4DC
:100A9000F70193FD859193FF81917F018111B3CF80
:100AA000982F9F7D9554933028F40C5F1F4F9FE340
:100AB00099830DC0833631F0833771F0833509F0A7
:100AC00059C021C0F801808189830E5F1F4F88249F
:100AD0008394912C530113C02801F2E04F0E511C56
:100AE000F801A080B18036FE03C0692D70E002C01D
:100AF0006FEF7FEFC5010E94C1064C018201F32D0B
:100B0000FF773F2E16C0280122E0420E511CF8014B
:100B1000A080B18036FE03C0692D70E002C06FEF87
:100B20007FEFC5010E94B6064C01F32DF0683F2E01
:100B3000820133FC1BC0822D90E088169906B0F428
:100B4000B60180E290E00E94CC062A94F4CFF50131
:100B500037FC859137FE81915F01B60190E00E94DC
:100B6000CC0621102A9421E0821A91088114910464
:100B700071F7E8C0843611F0893641F5F80137FE87
:100B800007C060817181828193810C5F1F4F08C013
:100B900060817181072E000C880B990B0E5F1F4F2F
:100BA000F32DFF763F2E97FF09C0909580957095A5
:100BB00061957F4F8F4F9F4FF0683F2E2AE030E0C6
:100BC000A3010E940807882E861845C0853731F496
:100BD000232D2F7EB22E2AE030E025C0932D997F61
:100BE000B92E8F36C1F018F4883579F0B5C080374A
:100BF00019F0883721F0B0C0E92FE061BE2EB4FEB5
:100C00000DC0FB2DF460BF2E09C034FE0AC0292F91
:100C10002660B22E06C028E030E005C020E130E0BA
:100C200002C020E132E0F801B7FE07C060817181A7
:100C3000828193810C5F1F4F06C06081718180E0CB
:100C400090E00E5F1F4FA3010E940807882E8618B0
:100C5000FB2DFF773F2E36FE0DC0232D2E7FA22EBB
:100C6000891458F434FE0BC032FC09C0832D8E7EEB
:100C7000A82E05C0B82CA32C03C0B82C01C0B92CD9
:100C8000A4FE0FC0FE01E80DF11D8081803321F428
:100C90009A2D997EA92E09C0A2FE06C0B394B394E2
:100CA00004C08A2D867809F0B394A3FC11C0A0FE7D
:100CB00006C0B21488F4280C922C9B180EC0B214F3
:100CC00060F4B60180E290E00E94CC06B394F7CFC6
:100CD000B21418F42B1802C0982C212CA4FE10C0BA
:100CE000B60180E390E00E94CC06A2FE17C0A1FCF2
:100CF00003C088E790E002C088E590E0B6010CC030
:100D00008A2D867859F0A1FE02C08BE201C080E2F4
:100D1000A7FC8DE2B60190E00E94CC06891438F45D
:100D2000B60180E390E00E94CC069A94F7CF8A94B3
:100D3000F301E80DF11D8081B60190E00E94CC0620
:100D40008110F5CF222009F442CEB60180E290E076
:100D50000E94CC062A94F6CFF6018681978102C0C4
:100D60008FEF9FEF2B96E2E10C948207FC01059038
:100D7000615070400110D8F7809590958E0F9F1F9D
:100D80000895FC016150704001900110D8F78095E2
:100D900090958E0F9F1F08950F931F93CF93DF930E
:100DA000FB01238121FD03C08FEF9FEF2CC022FFA9
:100DB00016C046815781248135814217530744F478
:100DC000A081B1819D012F5F3F4F318320838C93A0
:100DD000268137812F5F3F4F3783268314C08B01D5
:100DE000EC01FB010084F185E02D0995892BE1F6EA
:100DF000D80116968D919C911797019617969C9302
:100E00008E931697CE01DF91CF911F910F91089588
:100E1000FA01AA27283051F1203181F1E8946F932B
:100E20006E7F6E5F7F4F8F4F9F4FAF4FB1E03ED0D1
:100E3000B4E03CD0670F781F891F9A1FA11D680F6F
:100E4000791F8A1F911DA11D6A0F711D811D911DA2
:100E5000A11D20D009F468943F912AE0269F112417
:100E60003019305D3193DEF6CF010895462F47707B
:100E7000405D4193B3E00FD0C9F7F6CF462F4F70D6
:100E8000405D4A3318F0495D31FD4052419302D034
:100E9000A9F7EACFB4E0A6959795879577956795DA
:100EA000BA95C9F700976105710508959B01AC01DA
:100EB0000A2E06945795479537952795BA95C9F701
:100EC000620F731F841F951FA01D08952F923F92DC
:100ED0004F925F926F927F928F929F92AF92BF924A
:100EE000CF92DF92EF92FF920F931F93CF93DF93F6
:100EF000CDB7DEB7CA1BDB0B0FB6F894DEBF0FBE53
:100F0000CDBF09942A88398848885F846E847D849F
:100F10008C849B84AA84B984C884DF80EE80FD80A1
:100F20000C811B81AA81B981CE0FD11D0FB6F89417
:0E0F3000DEBF0FBECDBFED010895F894FFCFD8
:100F3E00010102010101020101010303030000028C
:100F4E008C0197018C019701A201AE01BB01C60174
:100F5E00D101DE01EB01F601D101DE0101020C022D
:100F6E00D101DE0117022202170222022D023802DF
:100F7E0043024E02590264027102810293029E02E2
:100F8E00AA020000B4020000BE020000C802000067
:100F9E00D2020000DC020000E6020000F0020000B7
:100FAE00FB02000005030000100300001A030000FE
:100FBE002503000033034303480354035F03710307
:100FCE00013120504C41594552204F4E4C59000092
:100FDE0000476F20746F20737461727400000000FC
:100FEE0000466F72776172642100000000000000FD
:100FFE00004E4F20504C4159455220464F554E44BD
:10100E0000474F204241434B2C20436865617421B9
:10101E000054454D5020414C455254212100256429
:10102E0000446F6F722000205472696573204C6506
:10103E0066740057726F6E670048414C4C4F004308
:10104E006F6E67726174756C6174696F6E73210077
:10105E0020202020594F552057494E003129203449
:10106E002020322920350033292036202034292013
:10107E0037003129203920203229203132003329FE
:10108E0020313020203429203135003129203220E2
:10109E0020322920330033292034202034292035D2
:1010AE0000312920313020203229203131003329DE
:1010BE0020313220203429203133003129203320B1
:1010CE00203229203400332920352020342920369F
:1010DE0000312920312020322920320033292033BB
:1010EE002020342920340031292036202032292096
:1010FE003700332920382020342920390031292087
:10110E00342020322920370033292036202034295C
:10111E002035003129203420203229203000332977
:10112E00203620203429203300312920312020324E
:10113E0029203000332920652020342920312F65C5
:10114E00003129206E6F756E202032292061646A6D
:10115E000033292076657262202034296164766519
:10116E0072620031292030202032292032003329AA
:10117E002031202034292031300033202B20322002
:10118E003D203F0038202D2033203D203F003520CC
:10119E002A2032203D203F0039202F2033203D20B1
:1011AE003F0037202B2034203D203F0036202D20BD
:1011BE0032203D203F0034202A2033203D203F00A6
:1011CE003130202F2035203D203F0035202B20367A
:1011DE00203D203F003132202D2035203D203F0084
:1011EE0033202A2033203D203F003135202F20335D
:1011FE00203D203F00793D33782C2064792F647890
:10120E003D3F006C696D202828655E782D31292FB1
:10121E00782900782D3E300041686D656420706C31
:10122E006179730061686D6564206973203F0048C1
:10123E006F77204D616E792066696E676572733FB8
:10124E000069732048617373616E207261697369FE
:04125E006E670000B7
:00000001FF
