:100000000C942A000C9447000C9447000C94470071
:100010000C9447000C9447000C9447000C94470044
:100020000C9447000C9465000C9447000C94490014
:100030000C9447000C9447000C9447000C94470024
:100040000C9447000C9447000C9447000C94470014
:100050000C94470011241FBECFE5D8E0DEBFCDBF12
:1000600013E0A0E6B0E0ECE5F0E102C005900D92EF
:10007000A435B107D9F723E0A4E5B3E001C01D9290
:10008000A736B207E1F70E9481030C942C080C9468
:1000900000001F920F920FB60F9211248F939F931F
:1000A0008091550390E001968F709078992324F405
:1000B0000197806F9F6F0196809355039F918F9159
:1000C0000F900FBE0F901F9018951F920F920FB6B2
:1000D0000F9211248F93809156038F5F8093560364
:1000E0008F910F900FBE0F901F90189583B781606E
:1000F00083BF81E089BF789408959BB3282F26950C
:1001000028779778922B9BBB9BB39D7F9BBB9BB320
:1001100094609BBB2AE62A95F1F700C09BB39B7FB6
:100120009BBB9AE69A95F1F700C02BB390E0880F3D
:10013000991F880F991F880F991F922F977888779A
:10014000892B8BBB8BB384608BBB2AE62A95F1F796
:1001500000C08BB38B7F8BBB8FEF99EF20E081507A
:1001600090402040E1F700C00000089540E050E0DA
:1001700035C098B321E030E0082E02C0220F331FB3
:100180000A94E2F7922B98BB662339F0EFE9FFE07F
:100190003197F1F700C0000006C0EFE3FFE13197AF
:1001A000F1F700C0000098B32095292328BB6623EF
:1001B00051F0FFE72DEE30E0F15020403040E1F704
:1001C00000C0000009C09FEFE0EEF0E09150E04079
:1001D000F040E1F700C000004F5F5F4F4233510530
:1001E00044F20895843010F491E001C092E0890F48
:1001F00040E050E035C095B321E030E0082E02C069
:10020000220F331F0A94E2F7922B95BB662339F035
:10021000EFE9FFE03197F1F700C0000006C0EFE31F
:10022000FFE13197F1F700C0000095B32095292335
:1002300025BB662351F0FFE72DEE30E0F150204062
:100240003040E1F700C0000009C09FEFE0EEF0E0B1
:100250009150E040F040E1F700C000004F5F5F4F79
:100260004233510544F20895CF93823048F491E02F
:10027000811101C090E061E0892F0E94B60017C093
:10028000863020F461E00E94F20011C060E080E05E
:100290000E94B60060E081E00E94B600C2E005C0A6
:1002A00060E08C2F0E94F200CF5FC630C8F3CF9180
:1002B0000895AC0160E036C02BB396959877277807
:1002C000922B9BBB8BB382608BBB8BB384608BBB4D
:1002D00020E52A95F1F78BB38B7F8BBB80E58A9560
:1002E000F1F78BB39081292F30E0220F331F220FBB
:1002F000331F220F331F87782877282B2BBB8BB314
:1003000084608BBB90E59A95F1F79BB39B7F9BBB79
:100310002FEF80E792E0215080409040E1F700C04D
:1003200000006F5FFA01E60FF11D90819111C4CFBB
:100330002FEF8DE399E4215080409040E1F700C019
:10034000000008952FEF89EF90E021508040904009
:10035000E1F700C0000082E00E947D0088E20E9478
:100360007D008CE00E947D0086E00E947D0081E09F
:100370000E947D002FEF89EF90E021508040904057
:10038000E1F700C000000895EF92FF920F931F93D2
:10039000CF93DF93809155030AC0CE0101968F70F1
:1003A0009078992324F40197806F9F6F0196C82F4E
:1003B000D0E0FE01E95AFC4F80818111EECF81E04F
:1003C000FE01E95AFC4F80830E94A2018E01000FBA
:1003D000111F000F111FC80180559F4F7C01FC01A8
:1003E000808191810E9459018FE19EE40197F1F78C
:1003F00000C0000080EC0E947D00F70182819381A3
:100400000E9459018FE19EE40197F1F700C00000BE
:100410000E94A20100591F4FF801808191810E9422
:1004200059018FE19EE40197F1F700C0000080ECD4
:100430000E947D00F801828193810E9459018FE121
:100440009EE40197F1F700C0000022E02EC080B3C7
:10045000422F50E090E0022E02C0959587950A94B5
:10046000E2F780FD21C085B3806285BB9FEFE0E7A6
:10047000F2E09150E040F040E1F700C0000085B3A9
:100480008F7D85BB8FE39CE90197F1F700C00000E9
:1004900042505109C05ADF4F288130E081E04217B5
:1004A000530761F080E00AC02F5F263080F2EFE151
:1004B000FEE43197F1F700C0000086CFDF91CF91C5
:1004C0001F910F91FF90EF90089587B1806487B9D5
:1004D00086B1876886B9089597B1987F8770892B10
:1004E00087B986B1806486B93499FECF84B195B15D
:1004F000089580E00E946C020097D9F39C0121507E
:10050000310981E02539310508F080E00895DF9256
:10051000EF92FF920F931F93CF93DF931F92CDB76C
:10052000DEB70E94A20180E1E7E5F3E0DF011D9262
:100530008A95E9F786E00E943401D12C94C00E948C
:10054000A20180EF90E00E945901BFEF2DE339E452
:10055000B15020403040E1F700C000000E94790215
:100560008111EDCF85B315BA95B3809154038F5F98
:10057000892B85BB8091540390E001969F938F93C4
:100580000F2EFBEFEF2EF0E0FF2EF02DFF92EF92FB
:100590008E010F5F1F4F1F930F930E9442050E9411
:1005A000A2018EEF90E00E945901C8010E945901FA
:1005B0008FE19EE40197F1F700C0000083E090E036
:1005C0008D1991099F938F93FF92EF921F930F9331
:1005D0000E944205D8010D900020E9F711978CE0A8
:1005E000E4E0F1E001900D928A95E1F780EC0E9441
:1005F0007D00C8010E945901AFE1BEE41197F1F7F7
:1006000000C00000809154030E94C4010FB6F8940A
:10061000DEBF0FBECDBF8823B1F08091540386307A
:1006200019F40E94340106C091E0980F909354038E
:100630000E94340185B3909154039F5F887F892B7A
:1006400085BBD12C10C0D3940E94A20180E191E01F
:100650000E9459013FEF89EF90E031508040904077
:10066000E1F700C00000A2E0AD1528F0809154032E
:10067000863009F073CF109254038EE78ABB1BBA01
:1006800081E0B2E0BD1508F480E00F90DF91CF91DA
:100690001F910F91FF90EF90DF90089584E089BF44
:1006A0001FBC089582B3816082BB85E38A95F1F710
:1006B000000082B38E7F82BB1DBC1CBC81E48EBD5A
:1006C00080E288BF84E088BF08B605FEFDCF1DBC70
:1006D0001CBC81E08EBD80E288BF84E088BF1092A0
:1006E000560308B605FEFDCF66B577B580E090E00D
:1006F0000E94900429E23CE349E654E40E941E046F
:1007000008950E9465028EE78ABB83E087BB81E083
:1007100081BB9FEF94BB18BA85BB8CE782BB1BBA29
:100720002FEF89EF90E0215080409040E1F700C02A
:10073000000087E00E9434010E944E030E94760070
:100740000E94A20186E191E00E9459012FEF80E70B
:1007500092E0215080409040E1F700C0000087E027
:100760000E946C0291E0853108F490E0C92F17C017
:1007700087E00E946C0291E0853108F490E0C92F77
:100780000E94A2018AE291E00E9459012FEF83EDBD
:1007900090E3215080409040E1F700C00000C1305C
:1007A00039F70E948702882301F181E00E947D00D1
:1007B0008AE391E00E9459012FEF8DE399E42150E3
:1007C00080409040E1F700C0000080EC0E947D0076
:1007D0008BE491E00E9459012FEF8DE399E42150C1
:1007E00080409040E1F700C0000081E00E947D0061
:1007F00012C081E00E947D000E94A20185E591E087
:100800000E9459012FEF83ED90E3215080409040EA
:10081000E1F700C000000E94520320E030E040EA0F
:1008200050E40E941904882324F381E00E947D0093
:1008300096CF0E94CD0408F481E008950E9432040E
:100840000C9408050E94010558F00E94FA0440F03B
:1008500029F45F3F29F00C94F10451110C943C05EC
:100860000C94F7040E94190568F39923B1F35523FA
:1008700091F3951B550BBB27AA27621773078407B3
:1008800038F09F5F5F4F220F331F441FAA1FA9F349
:1008900035D00E2E3AF0E0E832D091505040E69537
:1008A000001CCAF72BD0FE2F29D0660F771F881F98
:1008B000BB1F261737074807AB07B0E809F0BB0B8B
:1008C000802DBF01FF2793585F4F3AF09E3F51059F
:1008D00078F00C94F1040C943C055F3FE4F3983EEF
:1008E000D4F3869577956795B795F7959F5FC9F788
:1008F000880F911D9695879597F90895E1E0660F09
:10090000771F881FBB1F621773078407BA0720F081
:10091000621B730B840BBA0BEE1F88F7E0950895EA
:10092000E89409C097FB3EF4909580957095619589
:100930007F4F8F4F9F4F9923A9F0F92F96E9BB273F
:100940009395F695879577956795B795F111F8CFBB
:10095000FAF4BB0F11F460FF1BC06F5F7F4F8F4F26
:100960009F4F16C0882311F096E911C0772321F01C
:100970009EE8872F762F05C0662371F096E8862FB4
:1009800070E060E02AF09A95660F771F881FDAF70B
:10099000880F9695879597F90895990F0008550F38
:1009A000AA0BE0E8FEEF16161706E807F907C0F0F5
:1009B00012161306E407F50798F0621B730B840BFD
:1009C000950B39F40A2661F0232B242B252B21F4D7
:1009D00008950A2609F4A140A6958FEF811D811D77
:1009E000089597F99F6780E870E060E008959FEFB1
:1009F00080EC089500240A941616170618060906B6
:100A0000089500240A941216130614060506089584
:100A1000092E0394000C11F4882352F0BB0F40F40C
:100A2000BF2B11F460FF04C06F5F7F4F8F4F9F4F4C
:100A3000089557FD9058440F551F59F05F3F71F0CE
:100A40004795880F97FB991F61F09F3F79F0879535
:100A50000895121613061406551FF2CF4695F1DFBE
:100A600008C0161617061806991FF1CF869571054E
:100A7000610508940895E894BB2766277727CB0182
:100A800097F90895AEE0B0E0E8E4F5E00C940308CF
:100A90000D891E8986E08C831A8309838FEF9FE777
:100AA0009E838D83AE01475E5F4F6F89788DCE0147
:100AB00001960E946405EF81F885E00FF11F108216
:100AC0002E96E4E00C941F08ABE0B0E0EAE6F5E017
:100AD0000C94F5076C017B018A01FC0117821682D8
:100AE000838181FFCCC1CE0101963C01F601938147
:100AF000F70193FD859193FF81917F01882309F48C
:100B0000BAC1853239F493FD859193FF81917F01BC
:100B1000853229F4B60190E00E945B07E7CF912C63
:100B2000212C312CFFE1F315D8F08B3279F038F419
:100B3000803279F08332A1F4232D20611DC08D32E3
:100B400061F0803369F4232D216016C0832D82600B
:100B5000382EE32DE4603E2E2AC0F32DF8601DC030
:100B600037FC2DC020ED280F2A3040F08E32B9F42A
:100B700036FC81C1232D2064322E19C036FE06C0FA
:100B80008AE0989E200D1124922E11C0EAE02E9E3C
:100B9000200D1124222EF32DF0623F2E08C08C363A
:100BA00021F4832D8068382E02C0883641F4F70185
:100BB00093FD859193FF81917F018111B3CF982F90
:100BC0009F7D9554933028F40C5F1F4F9FE39983CA
:100BD0000DC0833631F0833771F0833509F059C089
:100BE00021C0F801808189830E5F1F4F8824839480
:100BF000912C530113C02801F2E04F0E511CF80153
:100C0000A080B18036FE03C0692D70E002C06FEF96
:100C10007FEFC5010E9450074C018201F32DFF7741
:100C20003F2E16C0280122E0420E511CF801A08080
:100C3000B18036FE03C0692D70E002C06FEF7FEF18
:100C4000C5010E9445074C01F32DF0683F2E82013B
:100C500033FC1BC0822D90E088169906B0F4B601D3
:100C600080E290E00E945B072A94F4CFF50137FC04
:100C7000859137FE81915F01B60190E00E945B078C
:100C800021102A9421E0821A91088114910471F7AD
:100C9000E8C0843611F0893641F5F80137FE07C007
:100CA00060817181828193810C5F1F4F08C06081D8
:100CB0007181072E000C880B990B0E5F1F4FF32DCF
:100CC000FF763F2E97FF09C09095809570956195AE
:100CD0007F4F8F4F9F4FF0683F2E2AE030E0A301F7
:100CE0000E949707882E861845C0853731F4232D3A
:100CF0002F7EB22E2AE030E025C0932D997FB92EA9
:100D00008F36C1F018F4883579F0B5C0803719F006
:100D1000883721F0B0C0E92FE061BE2EB4FE0DC0CF
:100D2000FB2DF460BF2E09C034FE0AC0292F2660B7
:100D3000B22E06C028E030E005C020E130E002C05D
:100D400020E132E0F801B7FE07C060817181828145
:100D500093810C5F1F4F06C06081718180E090E03D
:100D60000E5F1F4FA3010E949707882E8618FB2D48
:100D7000FF773F2E36FE0DC0232D2E7FA22E891425
:100D800058F434FE0BC032FC09C0832D8E7EA82E91
:100D900005C0B82CA32C03C0B82C01C0B92CA4FEEC
:100DA0000FC0FE01E80DF11D8081803321F49A2DE2
:100DB000997EA92E09C0A2FE06C0B394B39404C0C4
:100DC0008A2D867809F0B394A3FC11C0A0FE06C05A
:100DD000B21488F4280C922C9B180EC0B21460F444
:100DE000B60180E290E00E945B07B394F7CFB214A3
:100DF00018F42B1802C0982C212CA4FE10C0B601A8
:100E000080E390E00E945B07A2FE17C0A1FC03C034
:100E100088E790E002C088E590E0B6010CC08A2D1A
:100E2000867859F0A1FE02C08BE201C080E2A7FCE7
:100E30008DE2B60190E00E945B07891438F4B60198
:100E400080E390E00E945B079A94F7CF8A94F301C5
:100E5000E80DF11D8081B60190E00E945B078110D2
:100E6000F5CF222009F442CEB60180E290E00E9444
:100E70005B072A94F6CFF6018681978102C08FEF37
:100E80009FEF2B96E2E10C941108FC010590615054
:100E900070400110D8F7809590958E0F9F1F089590
:100EA000FC016150704001900110D8F78095909539
:100EB0008E0F9F1F08950F931F93CF93DF93FB0116
:100EC000238121FD03C08FEF9FEF2CC022FF16C0AE
:100ED00046815781248135814217530744F4A0810C
:100EE000B1819D012F5F3F4F318320838C932681F9
:100EF00037812F5F3F4F3783268314C08B01EC016E
:100F0000FB010084F185E02D0995892BE1F6D801DC
:100F100016968D919C911797019617969C938E9398
:100F20001697CE01DF91CF911F910F910895FA018D
:100F3000AA27283051F1203181F1E8946F936E7F18
:100F40006E5F7F4F8F4F9F4FAF4FB1E03ED0B4E009
:100F50003CD0670F781F891F9A1FA11D680F791F4A
:100F60008A1F911DA11D6A0F711D811D911DA11D5B
:100F700020D009F468943F912AE0269F112430196B
:100F8000305D3193DEF6CF010895462F4770405D06
:100F90004193B3E00FD0C9F7F6CF462F4F70405DB5
:100FA0004A3318F0495D31FD4052419302D0A9F710
:100FB000EACFB4E0A6959795879577956795BA950A
:100FC000C9F700976105710508959B01AC010A2ED0
:100FD00006945795479537952795BA95C9F7620FA7
:100FE000731F841F951FA01D08952F923F924F924B
:100FF0005F926F927F928F929F92AF92BF92CF92A9
:10100000DF92EF92FF920F931F93CF93DF93CDB7B1
:10101000DEB7CA1BDB0B0FB6F894DEBF0FBECDBF29
:1010200009942A88398848885F846E847D848C84FA
:101030009B84AA84B984C884DF80EE80FD800C8103
:101040001B81AA81B981CE0FD11D0FB6F894DEBFE6
:0C1050000FBECDBFED010895F894FFCF56
:10105C00010102010101020101010303030000026D
:10106C005D0168015D01680173017F018C019701CD
:10107C00A201AF01BC01C701A201AF01D201DD0188
:10108C00A201AF01E801F301E801F301FE0109023D
:10109C0014021F022A0235024202520264026F023B
:1010AC007B020000850200008F0200009902000004
:1010BC00A3020000AD020000B7020000C102000054
:1010CC00CC020000D6020000E1020000EB0200009E
:1010DC00F602000004031403190325033003420332
:1010EC0054454D5020414C45525400256400446FEA
:1010FC006F722000205472696573204C6566740011
:10110C0057726F6E670048414C4C4F003120504C69
:10111C0041594552204F4E4C59004E4F20504C4196
:10112C0059455220464F554E440050455246454372
:10113C005420564943544F52592100202020204915
:10114C002057494E00474554204F55540031292013
:10115C003420203229203500332920362020342910
:10116C002037003129203920203229203132003318
:10117C0029203130202034292031350031292032EA
:10118C0020203229203300332920342020342920F8
:10119C0035003129203130202032292031310033E3
:1011AC0029203132202034292031330031292033B9
:1011BC0020203229203400332920352020342920C6
:1011CC0036003129203120203229203200332920C9
:1011DC003320203429203400312920362020322994
:1011EC002037003329203820203429203900312998
:1011FC002034202032292037003329203620203477
:10120C002920350031292034202032292030003388
:10121C002920362020342920330031292031202068
:10122C003229203000332920652020342920312F09
:10123C0065003129206E6F756E2020322920616483
:10124C006A00332920766572622020342961647625
:10125C00657262003129203020203229203200337F
:10126C00292031202034292031300033202B20320A
:10127C00203D203F0038202D2033203D203F0035DD
:10128C00202A2032203D203F0039202F2033203DC2
:10129C00203F0037202B2034203D203F0036202DCE
:1012AC002032203D203F0034202A2033203D203F97
:1012BC00003130202F2035203D203F0035202B20C1
:1012CC0036203D203F003132202D2035203D203F5F
:1012DC000033202A2033203D203F003135202F20A1
:1012EC0033203D203F00793D33782C2064792F64E6
:1012FC00783D3F006C696D202828655E782D31297A
:10130C002F782900782D3E300041686D656420707F
:10131C006C6179730061686D6564206973203F00AE
:10132C00486F77204D616E792066696E67657273C0
:10133C003F00697320486173616E20726169736943
:04134C006E670000C8
:00000001FF
